:020000040000FA
:060000000A128A1110280B
:10000800FE00030EFB000A08FC00831203137F089E
:10001800FD000A128A112C2D0A128A111328831244
:100028000313C401C501C601C701C801C901CA013A
:10003800CB01CC01CD0183010A128A112328831236
:100048000313860110308316031386008B170B10D9
:100058008B15003083120313B2000030B100253035
:10006800B0008030AF000A128A1183220A128A1166
:100078000B3083120313A1008030A2000A128A11E8
:10008800AA240A128A110A300A128A1190250A1221
:100098008A111030831203139000831203138F0107
:1000A8008E01C401C5018614053083120313C100F3
:1000B800C10B5C285F2883120313861082308312D9
:1000C8000313C200DD30C100C10B6828C20B6828C9
:1000D800831203134508803AFF0080307F02031D16
:1000E800772801304402031C7A287B28AC28831225
:1000F80003134508803AFF0081307F02031D8628DC
:1001080090304402031889288A28AC281E308312AC
:100118000313C1004108AE004508B0004408AF0011
:1001280046300A128A1199210A128A11463083121E
:100138000313A1000030A2000A128A11AA240A128D
:100148008A112C300A128A1190250A128A11B828AD
:1001580030300A128A1190250A128A112C300A129C
:100168008A1190250A128A11831203138F018E01B6
:10017800C401C5010615053083120313C100C10B64
:10018800C328C6288312031306118230831203136F
:10019800C200DD30C100C10BCF28C20BCF288312AB
:1001A80003134508803AFF0080307F02031DDE28D4
:1001B80001304402031CE128E228132983120313A7
:1001C8004508803AFF0081307F02031DED289030FA
:1001D80044020318F028F12813291E308312031350
:1001E800C1004108AE004508B0004408AF004630E1
:1001F8000A128A1199210A128A11463083120313AE
:10020800A1000030A2000A128A11AA240A128A1137
:100218002C300A128A1190250A128A111F293030AF
:100228000A128A1190250A128A112C300A128A1190
:1002380090250A128A11831203138F018E01C401BB
:10024800C5018615053083120313C100C10B2A2985
:100258002D29831203138611823083120313C200DF
:10026800DD30C100C10B3629C20B362983120313B6
:100278004508803AFF0080307F02031D4529013080
:100288004402031C482949297A2983120313450883
:10029800803AFF0081307F02031D542990304402C8
:1002A8000318572958297A291E3083120313C100CD
:1002B8004108AE004508B0004408AF0046300A12B5
:1002C8008A1199210A128A11463083120313A10058
:1002D8000030A2000A128A11AA240A128A110A30CE
:1002E8000A128A1190250A128A11862930300A12B8
:1002F8008A1190250A128A110A300A128A11902549
:100308000A128A11043083120313C3008E30C2000C
:100318001130C100C10B8E29C20B8E29C30B8E2947
:10032800952951280A128A11102883120313B9003B
:100338002F30B1003108B4006C2A25303A06031971
:10034800A629A729B3293A08B10039088400310839
:10035800831380000130B1003108B9076C2AB50158
:100368000130AE07FF302E0784000A128A116A2571
:100378000A128A11BA00B100B2013208003A031910
:10038800C6296C2A3108003A03197E2A643A0319EF
:10039800D1290D3A0319D1296C2A34088400831312
:1003A8000008B700840A0008B8000230B10031081C
:1003B800B407B81FE029E129EA290330B100310860
:1003C800B504B709B809B70A0319B80ABA01BA0ACD
:1003D8003A08B1003107013E84000A128A116A25E1
:1003E8000A128A11B2000A128A116A250A128A119F
:1003F800B30033083802031D032A320837020318F2
:10040800062A072A082A122A0130B1003108BA0739
:1004180005303A06031D112A122AEC29350803393A
:100428000319172A182A232A2D30B1003908840005
:100438003108831380000130B1003108B9073A0848
:10044800B1003108B600632A0A30A8000030A900BC
:100458003608B1003107013E84000A128A116A2564
:100468000A128A11A0000A128A116A250A128A1130
:10047800A1003808A3003708A2000A128A116424D0
:100488000A128A11831203132108AB002008AA005C
:100498000A128A11F0240A128A11831203132808F7
:1004A800303EB2003208BA003A08B1003908840078
:1004B8003108831380000130B1003108B907FF30DB
:1004C800B1003108B607360A031D6B2A6C2A282AA0
:1004D8000130AE07FF302E0784000A128A116A2500
:1004E8000A128A11B1003108BA003A08031D7D2AA0
:1004F8007E2AA12939088400831380010800831209
:1005080003132F08B3003008B4003108B5003208CF
:10051800B60006300310B30DB40DB50DB60DFF3E91
:10052800031D8E2A3608A3003508A2003408A1004E
:100538003308A0002F08B7003008B8003108B90008
:100548003208BA0006300310B70DB80DB90DBA0D50
:10055800FF3E031DA72A0030BB001230BC007A30D2
:10056800BD000030BE003708BB023808031C380F36
:10057800BE2ABF2ABC023908031C390FC42AC52A5F
:10058800BD023A08031C3A0FCA2ACB2ABE023E080B
:10059800A7003D08A6003C08A5003B08A4000A12D5
:1005A8008A1160230A128A11831203132108C000DA
:1005B8002008BF0001304002003003193F02031C2D
:1005C800E62AE72A432B2F08B3003008B400310885
:1005D800B5003208B60004300310B30DB40DB50DE4
:1005E800B60DFF3E031DF02A3608A3003508A20009
:1005F8003408A1003308A0002F08B7003008B8005D
:100608003108B9003208BA0004300310B70DB80D2C
:10061800B90DBA0DFF3E031D092B0030BB00123087
:10062800BC007A30BD000030BE003708BB02380875
:10063800031C380F202B212BBC023908031C390F4F
:10064800262B272BBD023A08031C3A0F2C2B2D2BE7
:10065800BE023E08A7003D08A6003C08A5003B08CE
:10066800A4000A128A1160230A128A118312031342
:100678002108C0002008BF00831603131815013095
:1006880083124002003003193F0203184C2B4D2BF4
:100698005F2B3F0883160313990018128312031364
:1006A800981783160313871707178312031318164F
:1006B800831603139816080083120313AA01A31FB5
:1006C800662B672B742BA009A109A209A309A00A0C
:1006D8000319A10A0319A20A0319A30AAA01AA0A5B
:1006E800A71F772B782B872BA409A509A609A7098B
:1006F800A40A0319A50A0319A60A0319A70A0130AF
:10070800A8002808AA060030AE000030AD0000306E
:10071800AC000030AB002308220421042004031994
:10072800962B972BE42BA901A90AA72B0130A80027
:100738000310A00DA10DA20DA30DA80B9C2B013039
:10074800A8002808A907A31FAA2BAB2B9A2B0130B6
:10075800A8000310AB0DAC0DAD0DAE0DA80BAD2B65
:1007680023082702031DC22B22082602031DC22BC1
:1007780021082502031DC22B20082402031CC52BB7
:10078800C62BD52B2008A4022108031C210FA50283
:100798002208031C220FA6022308031C230FA7020A
:1007A8002B1401300310A30CA20CA10CA00CFF3ECB
:1007B800031DD62B0130A902031DE32BE42BAB2B21
:1007C8002A080319E82BE92BF42BAB09AC09AD096E
:1007D800AE09AB0A0319AC0A0319AD0A0319AE0A2C
:1007E8002E08A3002D08A2002C08A1002B08A000A9
:1007F8000800F601F11F012C022C092CF009F1095F
:10080800F00A0319F10AF601F60AF31F0C2C0D2C55
:10081800162CF209F309F20A0319F30A0130F4005D
:100828007408F606F701F8017008710403191D2C05
:100838001E2C552CF501F50A2C2C01300310F00D57
:10084800F10DFF3E031D222C0130F4007408F5075A
:10085800F11F2F2C302C212C01300310F70DF80D2F
:10086800FF3E031D312C71087302031D3D2C7008D7
:100878007202031C402C412C482C7008F2027108AB
:10088800031CF303F302771401300310F10CF00C8E
:10089800FF3E031D492C0130F502031D542C552C35
:1008A800302C76080319592C5A2C5F2CF709F809B3
:1008B800F70A0319F80A7808F1007708F000080029
:1008C80083120313A501A6012008210403196D2C26
:1008D8006E2CA52CA701A70A7C2C01300310A00DB3
:1008E800A10DFF3E031D722C0130A4002408A707A8
:1008F800A11F7F2C802C712C01300310A50DA60D93
:10090800FF3E031D812C21082302031D8D2C200886
:100918002202031C902C912C982C2008A20221085A
:10092800031CA303A302251401300310A10CA00C7F
:10093800FF3E031D992C0130A702031DA42CA52CF2
:10094800802C2608A1002508A000080083120313A4
:10095800A601A701D32C26082107A4002208A3007A
:100968000318A30AA61FB92CA30383120313230891
:10097800A5002508FF00240884000A128A116025B2
:100988000A128A110A128A1190250A128A11013054
:1009980083120313A6070318A70A0030A70726081F
:1009A8002107A4002208A3000318A30AA61FDD2C10
:1009B800A303831203132308A5002508FF002408B6
:1009C80084000A128A1160250A128A11003A031D4E
:1009D800EE2CEF2CAF2C08008312031328082904EF
:1009E8000319F72CF82C272DAD01AD0A062D01307F
:1009F8000310A80DA90DFF3E031DFC2C0130AC000F
:100A08002C08AD07A91F092D0A2DFB2C29082B023C
:100A1800031D102D28082A02031C132D142D1A2D2E
:100A28002808AA022908031CAB03AB0201300310F3
:100A3800A90CA80CFF3E031D1B2D0130AD02031DA0
:100A4800262D272D0A2D2B08A9002A08A800080002
:100A58000B1C2F2D302D552D8B11061E342D352DA9
:100A6800362D1014061A392D3A2D552D10103A30FE
:100A7800F0000030F1000F08F900FA017908FA00D7
:100A8800F90179080E04F2007A08F3000A128A11B3
:100A9800FD230A128A11710883120313C500700816
:100AA800C4000B108B157D08FF007C088A007B0EA4
:100AB8008300FE0E7E0E0900FF1B6A2D83137F182C
:100AC80083170008840A0319FF0A080005308A0002
:100AD8000408840A82070034013400340A340034DC
:100AE80064340034E8340334103427345334653420
:100AF8006E3473346F347234203455346C34743437
:100B08007234613473346F346E34693463346F34DF
:100B1800003425346434003483120313A000831690
:100B28000313981C982D992D932D831203132008D5
:040B38009900080018
:02400E007A3FF7
:00000001FF
